:100000000C9434000C943E000C943E000C943E0082
:100010000C943E000C943E000C943E000C943E0068
:100020000C943E000C943E000C943E000C943E0058
:100030000C943E000C943E000C943E000C943E0048
:100040000C943E000C943E000C943E000C943E0038
:100050000C943E000C943E000C943E000C943E0028
:100060000C943E000C943E0011241FBECFEFD8E04C
:10007000DEBFCDBF0E9440000C94BB000C9400007A
:10008000CF93DF93CDB7DEB780E890E0FC0110821C
:1000900086E890E02FE13EE4FC013183208380E894
:1000A00090E022E0FC01208381E890E029E1FC015E
:1000B000208384E290E024E230E0F9012081266090
:1000C000FC01208380E890E020E830E0F901208105
:1000D0002068FC01208380E890E020E830E0F9010E
:1000E00020812062FC01208348E850E086E890E00F
:1000F000FC016081718124EF31E0629FC001639F48
:10010000900D729F900D11249C01ADECBCEC0E94EF
:10011000AF00929582958F7089279F708927FA0189
:10012000918380834AE850E086E890E0FC012081DA
:100130003181C901880F991F880F991F820F931F62
:100140009C01ADECBCEC0E94AF00929582958F7043
:1001500089279F708927FA0191838083FFCFA29F0F
:10016000B001B39FC001A39F01D0B29F700D811D4C
:0A0170001124911D0895F894FFCFAB
:00000001FF
