:100000000C9434000C9451000C9451000C94510049
:100010000C9451000C9451000C9451000C9451001C
:100020000C9451000C9451000C9451000C9451000C
:100030000C9451000C9451000C9451000C945100FC
:100040000C9451000C9451000C9453000C949D009E
:100050000C9451000C9451000C9451000C945100DC
:100060000C9451000C94510011241FBECFEFD8E026
:10007000DEBFCDBF11E0A0E0B1E0E8E6F5E002C0F0
:1000800005900D92A636B107D9F711E0A6E6B1E0CA
:1000900001C01D92AB3AB107E1F70E94E0010C9458
:1000A000B2020C9400001F920F9200905F000F921A
:1000B00011242F938F939F93EF93FF93CF93DF930D
:1000C00000D000D0CDB7DEB780EC90E0FC0180819D
:1000D0008A8386EC90E0FC0180818B838A81887121
:1000E00089838091A8018F5F8F718C838091A90192
:1000F0009C81981719F482E089830BC08C818093CE
:10010000A8018C81882F90E08A579E4F2B81FC019B
:10011000208389818093AA010F900F900F900F90F8
:10012000DF91CF91FF91EF919F918F912F910F9040
:1001300000925F000F901F9018951F920F920090F1
:100140005F000F9211242F933F938F939F93EF9310
:10015000FF93CF93DF931F92CDB7DEB79091A601A7
:100160008091A7019817A1F08091A7018F5F8F71EF
:10017000898389818093A70186EC90E02981222FD1
:1001800030E02A593E4FF9012081FC01208309C04B
:1001900081EC90E021EC30E0F90120812F7DFC0121
:1001A00020830F90DF91CF91FF91EF919F918F91DD
:1001B0003F912F910F9000925F000F901F90189524
:1001C000CF93DF9300D0CDB7DEB79A8389831092A7
:1001D000A6011092A7011092A8011092A90189818D
:1001E0009A81992354F480EC90E022E0FC01208372
:1001F00089819A819F779A83898385EC90E0298110
:100200003A81232F3327FC01208384EC90E029815D
:10021000FC01208381EC90E028E9FC01208382EC42
:1002200090E026E0FC0120830F900F90DF91CF91AA
:100230000895CF93DF9300D0CDB7DEB79091A8019A
:100240008091A901981719F480E091E01BC080917A
:10025000A9018F5F8F71898389818093A901898129
:10026000882F90E08A579E4FFC0180818A8380917D
:10027000AA01882F90E0382F22278A81882F90E0CA
:10028000820F931F0F900F90DF91CF910895CF931E
:10029000DF9300D0CDB7DEB78A838091A6018F5F50
:1002A0008F71898300008091A70199819817D9F3F4
:1002B0008981882F90E08A599E4F2A81FC012083F2
:1002C00089818093A60181EC90E021EC30E0F90176
:1002D00020812062FC0120830F900F90DF91CF914D
:1002E0000895CF93DF9300D0CDB7DEB79A8389838B
:1002F0000DC089819A81FC018081282F89819A8192
:1003000001969A838983822F0E94470189819A816D
:10031000FC018081882369F70F900F90DF91CF91C6
:1003200008951F93CF93DF9300D000D01F92CDB7D5
:10033000DEB79D838C8303C0812F0E9447018C818F
:100340009D819A8389838C819D8101969D838C8375
:1003500089819A81FC0114911B838B81182F1123B1
:1003600059F70F900F900F900F900F90DF91CF9152
:100370001F910895CF93DF93CDB7DEB78091A80189
:10038000882F90E09C01215E3F4F8091A901882F2A
:1003900090E0A901481B590BCA012FE130E0B901D7
:1003A0000E948102DF91CF910895CF93DF93CDB763
:1003B000DEB78091A9018093A801DF91CF910895C4
:1003C000CF93DF93CDB7DEB7A8970FB6F894DEBF13
:1003D0000FBECDBF8AE290E0FC0110828BE290E07C
:1003E0002FEFFC01208384E290E02FEFFC012083BB
:1003F00086E890E020E23EE4FC013183208380E83F
:1004000090E020E830E0F9012081226AFC0120839D
:1004100081E890E021E830E0F90120812A61FC01C7
:10042000208388E890E02CED35E0FC0131832083C7
:100430008AE890E024EA36E0FC013183208386E8F4
:1004400090E09C838B831A8219821E821D8280E138
:1004500090E00E94E000789480E091E00E947101B9
:1004600001C000000E94190198878F838F819885B1
:10047000882791700097A9F78F8198858D30910515
:1004800021F59E01205F3F4F89819A81820F931F42
:10049000FC0110828BE191E00E947101CE01409637
:1004A0000E9471011A821982CE01409669E371E0BF
:1004B0000E94A902009721F48DE391E00E9471014E
:1004C00083E691E00E947101CCCF89819A818831C5
:1004D00091059CF44F819E01205F3F4F89819A8155
:1004E000820F931FFC01408389819A8101969A8330
:1004F00089838F810E944701B4CF19A61A8219827D
:10050000B0CF97FB072E16F4009407D077FD09D0E3
:100510000E94950207FC05D03EF4909581959F4F6F
:100520000895709561957F4F0895AA1BBB1B51E1FB
:1005300007C0AA1FBB1FA617B70710F0A61BB70B53
:10054000881F991F5A95A9F780959095BC01CD01F8
:100550000895FB01DC018D91019080190110D9F300
:08056000990B0895F894FFCFF8
:10056800536572766F20636F6E74726F6C6C657210
:1005780020737461727475700A0D000A0D726963D4
:10058800657675746F20636F6D616E646F20636F3D
:100598006D706C65746F3A2000706F73000A0D52AD
:1005A80069636F6E6F73636975746F20636F6D61D4
:1005B8006E646F3A2073657420706F73697A696F1F
:0605C8006E65000A0D0043
:00000001FF
