:100000000C9460000C947D000C947D000C947D0099
:100010000C947D000C947D000C947D000C947D006C
:100020000C947D000C947D000C947D000C947D005C
:100030000C947D000C947D000C947D000C947D004C
:100040000C947D000C947D000C947F000C94C900EE
:100050000C947D000C947D000C947D000C947D002C
:100060000C947D000C947D00537472696E6720734C
:10007000746F72656420696E20464C4153480A00D3
:1000800055415254204672616D65204572726F72FF
:100090003A200055415254204F76657272756E2099
:1000A0004572726F723A2000427566666572206F03
:1000B000766572666C6F77206572726F723A200097
:1000C00011241FBECFEFD8E0DEBFCDBF11E0A0E00E
:1000D000B1E0E8E8F5E002C005900D92A831B10763
:1000E000D9F711E0A8E1B1E001C01D92AD35B1072B
:1000F000E1F70E940C020C94C2020C9400001F92C3
:100100000F9200905F000F9211242F938F939F9373
:10011000EF93FF93CF93DF9300D000D0CDB7DEB73E
:1001200080EC90E0FC0180818A8386EC90E0FC0109
:1001300080818B838A818871898380915A018F5F46
:100140008F718C8380915B019C81981719F482E0F8
:1001500089830BC08C8180935A018C81882F90E019
:10016000885C9E4F2B81FC012083898180935C01F8
:100170000F900F900F900F90DF91CF91FF91EF9123
:100180009F918F912F910F9000925F000F901F9081
:1001900018951F920F9200905F000F9211242F93D9
:1001A0003F938F939F93EF93FF93CF93DF931F9290
:1001B000CDB7DEB790915801809159019817A1F001
:1001C000809159018F5F8F71898389818093590153
:1001D00086EC90E02981222F30E0285E3E4FF90125
:1001E0002081FC01208309C081EC90E021EC30E00B
:1001F000F90120812F7DFC0120830F90DF91CF91A9
:10020000FF91EF919F918F913F912F910F900092CD
:100210005F000F901F901895CF93DF9300D0CDB75C
:10022000DEB79A8389831092580110925901109277
:100230005A0110925B0189819A81992354F480ECD0
:1002400090E022E0FC01208389819A819F779A8344
:10025000898385EC90E029813A81232F3327FC01A3
:10026000208384EC90E02981FC01208381EC90E0E4
:1002700028E9FC01208382EC90E026E0FC01208349
:100280000F900F90DF91CF910895CF93DF9300D01F
:10029000CDB7DEB790915A0180915B01981719F4A0
:1002A00080E091E01BC080915B018F5F8F7189833B
:1002B000898180935B018981882F90E0885C9E4FC3
:1002C000FC0180818A8380915C01882F90E0382F27
:1002D00022278A81882F90E0820F931F0F900F9022
:1002E000DF91CF910895CF93DF9300D0CDB7DEB7E4
:1002F0008A83809158018F5F8F718983000080917C
:10030000590199819817D9F38981882F90E0885EE7
:100310009E4F2A81FC01208389818093580181ECC2
:1003200090E021EC30E0F90120812062FC01208383
:100330000F900F90DF91CF910895CF93DF9300D06E
:10034000CDB7DEB79A8389830DC089819A81FC017C
:100350008081282F89819A8101969A838983822FAF
:100360000E94730189819A81FC018081882369F749
:100370000F900F90DF91CF9108951F93CF93DF934C
:1003800000D000D01F92CDB7DEB79D838C8303C011
:10039000812F0E9473018C819D819A8389838C8136
:1003A0009D8101969D838C8389819A81FC011491A2
:1003B0001B838B81182F112359F70F900F900F90EB
:1003C0000F900F90DF91CF911F910895CF93DF93FE
:1003D000CDB7DEB780915A01882F90E09C01215E55
:1003E0003F4F80915B01882F90E0A901481B590B7A
:1003F000CA012FE130E0B9010E946902DF91CF917B
:100400000895CF93DF93CDB7DEB780915B018093E2
:100410005A01DF91CF910895CF93DF93CDB7DEB727
:100420002B970FB6F894DEBF0FBECDBF81E090E0F2
:100430009A83898380E190E00E940C01789480E0A7
:1004400091E00E949D0188E690E00E94BD019E011E
:100450002B5F3F4F89819A814AE050E0B9010E94A9
:100460009102CE0105960E949D018DE00E947301CC
:1004700001C000000E9445019C838B838B819C817D
:10048000882791700097A9F78B819C8188279870A5
:10049000009721F080E890E00E94BD018B819C8153
:1004A00088279470009721F083E990E00E94BD01B5
:1004B0008B819C8188279270009721F088EA90E0D8
:1004C0000E94BD018AE20E9473018B810E94730128
:1004D000D0CF97FB072E16F4009407D077FD09D0F4
:1004E0000E947D0207FC05D03EF4909581959F4FB8
:1004F0000895709561957F4F0895AA1BBB1B51E12C
:1005000007C0AA1FBB1FA617B70710F0A61BB70B83
:10051000881F991F5A95A9F780959095BC01CD0128
:100520000895FB019F01E8944230C4F04532B4F4D1
:100530004A3029F497FB1EF4909581959F4F642FC4
:1005400077270E947D02805D8A330CF0895D81935C
:10055000CB010097A1F716F45DE251931082C90117
:100560000C94B202DC01FC01672F71917723E1F753
:10057000329704C07C916D9370836291AE17BF0770
:08058000C8F30895F894FFCFC1
:10058800537472696E672073746F72656420696E44
:08059800205352414D0A0000FE
:00000001FF
